:020000040800F2
:1000000098040020C5120008D5110008D711000877
:10001000D9110008DB110008DD1100080000000004
:10002000000000000000000000000000DF110008D8
:10003000E111000800000000E3110008E5110008CC
:10004000F1120008F5120008F9120008FD1200086C
:100050000113000805130008091300080D13000818
:100060001113000815130008191300081D130008C8
:100070002113000825130008291300082D13000878
:100080003113000835130008391300083D13000828
:100090004113000845130008491300084D130008D8
:1000A000E9110008EF11000851130008551300086A
:1000B000591300085D130008611300086513000858
:1000C000691300086D130008711300087513000808
:1000D000791300087D1300088113000885130008B8
:1000E000891300088D130008911300089513000868
:1000F000991300089D130008A1130008A513000818
:10010000A9130008AD130008B1130008B5130008C7
:10011000B9130008BD130008C1130008C513000877
:10012000C9130008CD130008D1130008D513000827
:10013000D91300080000000000000000DD130008D3
:10014000E1130008E5130008E9130008ED130008A7
:10015000F1130008F5130008F9130008FD13000857
:100160000114000805140008091400080D14000803
:100170001114000815140008000000000000000021
:10018000191400081D14000838B5040001D101201D
:1001900032BD00F024F818B900F01DF800F0F8F9AD
:1001A0000FE00068C16841F00101C160816801F0A1
:1001B0000701062903D0016841F001010160002018
:1001C000704702206870211D206800F00DF90120A1
:1001D0006870002032BD002129702046704704F16C
:1001E0003C056878704710B50446206801698A07A5
:1001F00015D5C1688A0712D56FF00201016101228D
:100200002277806910F0030F204602D000F0FCF93D
:1002100003E000F0FAF900F087F80020207720686A
:1002200001694A0715D5C1684A0712D56FF0040164
:10023000016102222277806910F4407F204602D0BB
:1002400000F0E2F903E000F0E0F900F06DF80020C2
:100250002077206801690A0715D5C1680A0712D5F9
:100260006FF00801016104222277C06910F0030FCA
:10027000204602D000F0C8F903E000F0C6F900F013
:1002800053F80020207720680169CA0615D5C16897
:10029000CA0612D56FF01001016108222277C069E9
:1002A00010F4407F204602D000F0AEF903E000F0E9
:1002B000ACF900F039F80020207720680169CA07FE
:1002C00008D5C168CA0705D56FF001010161204654
:1002D00000F0F9F9206801690A0608D5C1680A0624
:1002E00005D56FF080010161204600F02AFA2068F0
:1002F00001694A0608D5C1684A0605D56FF0400174
:100300000161204600F01EFA206801698A060AD5BC
:10031000C1688A0607D56FF0200101612046BDE85B
:10032000104000F010BA10BD204600F00DBA38B5EC
:1003300000F04EF801D1022032BD012020700222CF
:100340006270DFF83C012A68936803409360086894
:10035000020018BF10282DD0202818BF302829D01F
:10036000402823D0502816D0602818D0702803D0F9
:10037000B0F5005F07D021E000F025F8286881681B
:1003800041F0770105E000F01EF82868816841F42B
:100390008041816012E000F012F850210BE0CA6841
:1003A0004968286800F093F8602104E000F007F83D
:1003B000402100E00146286800F09BF80EE0CA6882
:1003C0004968286874E0CB684A688968286898E0BA
:1003D000054605F13C042078012870470120607033
:1003E00000212170002032BDF0B5264C0568264B57
:1003F000264E274FDFF89CC0A04218BFB0F1804FB7
:1004000007D0604518BFB84203D0B04218BF984229
:100410000DD14A6825F070051543A04218BFB0F110
:10042000804F17D060451CBFB842B04212D09842EE
:100430001CBF194A90420DD0184EB0421CBF184A3A
:10044000904207D0174EB0421FBF174A9042174E36
:10045000B04203D1CA6825F4407515434A6925F0B6
:10046000800515430560A0428D68C5620A688262F6
:1004700012BF98420969016301224261F0BD000088
:100480008800FFFF0000014000040140000C004014
:1004900000080040000400400040014000440140CA
:1004A0000048014000180040001C004000200040AF
:1004B00010B5036A046A64086400046223F00A0346
:1004C000846924F0F00444EA0214846123E010B546
:1004D000036A23F0100303628369046A23F4704300
:1004E00043EA023324F0A004836144EA0114046265
:1004F00010BD826822F07002114341F00701816053
:10050000704710B5846824F47F442143114341EAC5
:100510000321816010BD1943016210BD1FB5102277
:100520000021684600F011F9324C3348206044F253
:10053000A01141F288300022E0606160A260226177
:10054000A2612046FFF720FE08B100F0F9F84FF451
:100550008050009069462046FFF7E9FE08B100F0A0
:10056000EFF81FBD80B525482549016044F2A0126F
:10057000002342F2107142608360C16003618361B5
:10058000FFF702FE18B1BDE8014000F0D9B801BD87
:1005900080B50068184A1B49904211D10020009094
:1005A0000A6842F480320A600022086800F4803051
:1005B000009000210098182000F008F9182013E09E
:1005C0000F4A904214D1002000900A6842F4003291
:1005D0000A600022086800F40030009000210098B2
:1005E000192000F0F3F81920BDE8024000F00BB923
:1005F00001BD00001000002000400140500000201C
:1006000000440140443802407047704780B500F014
:1006100025F900F00DF800F03BF9FFF77FFFFFF739
:10062000A1FF3F48FFF7BDFD3E48FFF7BAFDFEE7DB
:1006300080B592B03022002106A800F086F814227E
:10064000002101A800F081F8002000904FF48033D1
:100650003548016841F0805101600021006800F0D8
:1006600080500090009831480091026842F4804226
:1006700002600122006800F48040009006A8009902
:10068000069202214FF480020C910D920421A822BF
:100690000E910F920221042207931091119200F003
:1006A00037F902210291002203920F204FF4A0514A
:1006B000019004914FF480520592052101A800F0A9
:1006C000AFFA13B000BD10B50168194A19481A4CA9
:1006D000914210D1216831B90122012100F037FC8B
:1006E0000122226010BD012918D1002200F02FFC48
:1006F0000020206010BD114A91420FD1616829B9D4
:100700000122022100F023FC012006E0012905D18D
:100710000022022100F01BFC0020606010BD0000E0
:1007200010000020500000204038024000700040BF
:1007300000400140000802409000002000440140B9
:100740007047704770477047704710B504461046B1
:100750000A460146204600F015FC204610BD30B484
:10076000002513E050F8042BD30744BFA9F101037F
:100770009A18091F042942F8045BFAD213468C0721
:1007800044BF15809B1CC90748BF1D7050F8041B4F
:100790000029E7D130BC70470901020002D4294882
:1007A00081547047284B02F00F021A4402F8041CCF
:1007B0007047264B19684FF6FF020002114000F403
:1007C000E0600843224908431860704770B51F4B2A
:1007D0001C68C4F302230124C3F10705052D2EBFB5
:1007E0000F2504FA05F56D1E1E1D072E34BF0023CC
:1007F000DB1E2940994004FA03F3BDE870405B1EFC
:100800001A401143C8E7010007D4012200F01F017C
:10081000104B8A40400943F82020704710B5401E15
:10082000B0F1807F01D3012010BD0B4C60600F211F
:100830004FF0FF30FFF7B0FF0021A16007202060DC
:10084000002010BD00E400E018ED00E00CED00E039
:100850000000FA0500E100E010E000E080B50B4880
:10086000016841F400710160026842F48062026034
:10087000016841F4807101600320FFF79AFF0020B6
:1008800000F0CAFB00F0E8FB002002BD003C024083
:1008900038B586B01422002101A8FFF756FF0021C9
:1008A00019481A4C00914FF60F75026842F0040285
:1008B00002600022016801F0040100910099009299
:1008C000036843F080030360016801F08001009138
:1008D000009900922946036843F001030360006811
:1008E00000F0010000900098204600F030FB01214C
:1008F0000291002203920492019501A9204600F082
:100900004FFA07B030BD00BF303802400008024047
:100910002DE9F843040016D02078DFF8F462C1070F
:1009200013D5B06800F00C00042807D0B06800F0C0
:100930000C0008283DD1706841023AD53068810327
:1009400003D56068002800F05E812078B14F8107F0
:1009500019D5B06810F00C0F07D0B06800F00C008B
:1009600008285BD17068410258D43068810703D5EC
:10097000E068012840F047813168206921F0F801E2
:1009800041EAC00131602178080779D56069A24940
:10099000002868D001220A6000F07AFB0546706FDB
:1009A00081076DD400F074FB401B0228F7D90320A7
:1009B0002CE16068B0F5803F04D1306840F48030AD
:1009C000306011E0B0F5A02F306806D140F48020EF
:1009D0003060316841F4803105E020F480303060CF
:1009E000316821F480213160606858B100F050FB1B
:1009F000054630688103A8D400F04AFB401B6528F7
:100A0000F7D3D4E700F044FB0546306881039CD55A
:100A100000F03EFB401B6528F7D3C8E7E068A8B1AB
:100A20000121396000F034FB05463068810705D4A8
:100A300000F02EFB401B0228F7D9B8E73068216987
:100A400020F0F80040EAC10030609CE7386000F018
:100A50001FFB05463168880795D500F019FB401B40
:100A60000228F7D9A3E7086000F012FB0546706F73
:100A7000810705D500F00CFB401B0228F7D996E74B
:100A8000207841075FD5306C0025C1000AD400955D
:100A90000125316C41F080513164306C00F08050A0
:100AA00000900098DFF87481D8F80000C10513D4D5
:100AB000D8F8000040F48070C8F8000000F0E8FAB0
:100AC0008146D8F80000C10506D400F0E1FAA0EB99
:100AD00009000228F5D96AE7A068012805D0052891
:100AE000306F06D140F004003067306F40F00100F5
:100AF00005E0400840003067306F20F004003067A8
:100B000041F28938A06860B100F0C2FA8146306FC6
:100B1000810713D400F0BCFAA0EB09004045F6D3DE
:100B200045E700F0B5FA8146306F810706D500F041
:100B3000AFFAA0EB09004045F6D338E71DB1306CA1
:100B400020F080503064A06900285ED0B16801F0C8
:100B50000C0108293AD002282AD10020386600F07A
:100B600097FA05463068810105D500F091FA401BDF
:100B70000228F7D91BE7E069216A626A0843A16A83
:100B8000490840EA8210491E40EA0140E16A40EA11
:100B9000016070600120386600F07AFA044630681F
:100BA000810132D400F074FA001B0228F7D9FEE666
:100BB0000020386600F06CFA04463068810124D5C4
:100BC00000F066FA001B0228F7D9F0E601281AD0D7
:100BD0007068E26900F48001914202BF00F03F01B9
:100BE000226A91420FD147F6C071626A0140914278
:100BF00002BF00F44031A26A914202BF00F070606F
:100C0000E16A884201D0012000E00020BDE8F283C3
:100C10000038024000004742800E4742007000400A
:100C20002DE9F04104000F4654D0404E306800F0EA
:100C30000F00B84202D200F073F84BD120683C4D4F
:100C4000810712D5400703D5A96841F4E051A96096
:100C50002078010703D5A86840F46040A860A9681F
:100C6000A06821F0F0010143A9602178C80729D5C7
:100C70006068012802D129688A0305E0022818BFAC
:100C8000032803D129688A0103D423E029688A074D
:100C900020D5A968890840EA8100A86000F0F8F929
:100CA0008046A868616800F00C00B0EB810F09D0A5
:100CB00000F0EEF9A0EB080041F289318842F0D350
:100CC00003202BE0306800F00F00874204D200F0D0
:100CD00027F801D0012021E02078410705D5AA6836
:100CE000E06822F4E0520243AA602178080706D5A2
:100CF000A968206921F4604141EAC001A96000F0BF
:100D00001FF8AA680B490C4BC2F30312895CC84058
:100D100018600A48006800F07FF90020BDE8F08103
:100D20003770316801F00F01B9427047003C024052
:100D300000380240C41100080C0000200800002008
:100D400030B5144C606800F00C00042802D008286C
:100D500002D01DE0104830BD226820680023410207
:100D600002F03F0204D525680B49C5F3881003E063
:100D700020680A49C0F38810A1FB000100F08EF939
:100D80002168C1F30141491C4900B0FBF1F030BDBD
:100D9000024830BD0438024000127A000024F400FA
:100DA0002DE9F84F0D4600266B496C4A0F23044687
:100DB00001202F68B04000EA0708804540F0C1805C
:100DC0004FEA460C032707FA0CF76FEA070E6F6825
:100DD000012F18BF022F03D0112F18BF122F12D1CD
:100DE000A768D5F80C900EEA070709FA0CF949EA4A
:100DF0000707A760676827EA00006F68C7F3001756
:100E0000B74038436060E068AF680EEA000007FA58
:100E10000CF73843E060B0006F68022F18BF122F44
:100E200012D1F70804EB870700F01C09D7F820A0BF
:100E300003FA09FB2AEA0B0AD5F810B00BFA09F9F4
:100E400049EA0A09C7F8209027680EEA070E2F79A9
:100E500007F0030707FA0CF747EA0E0727606F68E9
:100E6000FF006ED5002700974FEA960C176847F4ED
:100E70008047176000F00C00176807F48047009760
:100E800003FA00FE009F364F57F82C7027EA0E0E2B
:100E9000344FBC4208BF002722D0334FBC4208BFAA
:100EA00001271DD0314FBC4208BF022718D0304F58
:100EB000BC4208BF032713D02E4FBC4208BF0427F3
:100EC0000ED02D4FBC4208BF052709D02B4FBC4286
:100ED00008BF062704D02A4FBC420CBF07270827AB
:100EE00007FA00F01E4F40EA0E0047F82C006FEAA8
:100EF00008000F6800EA070C6F68FF0348BF48EA64
:100F00000C0CC1F800C04F6800EA070C6F68BF0303
:100F100048BF48EA0C0CC1F804C08F6800EA070C0F
:100F20006F68FF0248BF48EA0C0CC1F808C0CF68E0
:100F300000EA070C6868800248BF48EA0C0CC1F858
:100F40000CC0761C0F2E7FF633AFBDE8F18F02B9CF
:100F50000904816170470000003C014044380240B0
:100F6000083801400000024000040240000802402E
:100F7000000C024000100240001402400018024021
:100F8000001C024062F30F2262F31F42401810F06F
:100F9000030308D0C91A1FD3DB0748BF00F8012D8F
:100FA00028BF20F8022D130030B41446154610391E
:100FB00028BF20E93C00FAD8490728BF20E90C00E7
:100FC00048BF40F8042D890028BF20F8022D48BFF3
:100FD00000F8012D30BC7047C91818BF00F8012D6A
:100FE000CB0728BF00F8012D704730B40EE002682F
:100FF000436802440830DC0744BFA9F10104E31848
:1010000052F8045B43F8045B091FF9D150F8041B44
:101010000029ECD130BC704738B50D4D0D4B2A7806
:1010200004464FF47A711868B1FBF2F2B0FBF2F0AB
:10103000FFF7F4FB50B9102C08D2002221464FF0E4
:10104000FF30FFF7C3FBAC60002032BD012032BD92
:10105000000000200C00002081B000200090002241
:101060000A48416841F480414160416801F480418F
:10107000009100990092036843F080530360006878
:1010800000F080500090009801B070474038024056
:1010900001484068704700BF00000020D3BBD9B1B1
:1010A000B2F5803F5BD2022A1ED98C46B1FBF2F129
:1010B00002FB11C31B0443EA1043B3FBF2FC02FB27
:1010C0001C3380B240EA0343B3FBF2F002FB103260
:1010D00040EA0C4000237047022A05D98446B0FB41
:1010E000F2F002FB10C270474AB105D100F00102D4
:1010F00049085FEA3000704700220023704700F083
:1011000051B80B000200002100207047F7D30022E5
:1011100000237047904271EB030CF2D370B5B1FA23
:1011200081F4B3FA83F52C1BA340C4F1200532FAF5
:1011300005F63343A2405FF00046E64002E05B085C
:101140005FEA3202841A71EB030524BF2046294668
:101150007641F4D302000B003000002170BD70B561
:10116000B1FA81F4B2FA82F5C4F120046419B4F141
:101170002006DAD3B2405FF00044F440002502E0DC
:1011800052085FEA3303C61A71EB020E24BF3046E1
:10119000714664416D41F3D302000B002000290029
:1011A00070BD0000704700000448054A016841F422
:1011B000700101604FF000601060704788ED00E042
:1011C00008ED00E000000000000000000102030440
:1011D000060708097047FEE7FEE7FEE7FEE77047EF
:1011E0007047704700F00AB80248FEF7FCBF02489B
:1011F000FEF7F9BF100000205000002002484168AF
:1012000002788A18426070470000002010B5074934
:1012100079441831064C7C44163404E00A68081DF1
:10122000114488470146A142F8D110BD2C000000AE
:101230004C0000004EF68851CEF20001086840F4E0
:1012400070000860BFF34F8FBFF36F8F4FF00070D7
:10125000E1EE100A7047000007F5FFFF880000006C
:10126000100000200000000083FDFFFF10000000C0
:1012700064000000000000200000000000F00DF8F5
:10128000002801D0FFF7C2FFAFF300800020AFF3CA
:101290000080FFF7BBF900F002F80120704700F072
:1012A00001B800000746384600F002F8FBE70000EE
:1012B00080B5AFF30080024A11001820ABBEFBE7F7
:1012C000260002000148804701480047A911000894
:1012D000E5120008010000000000000010000000FE
:1012E0000024F400AFF30080FFF7A4FFFFF7C6FF70
:1012F000FFF7FEBFFFF7FEBFFFF7FEBFFFF7FEBF22
:10130000FFF7FEBFFFF7FEBFFFF7FEBFFFF7FEBF11
:10131000FFF7FEBFFFF7FEBFFFF7FEBFFFF7FEBF01
:10132000FFF7FEBFFFF7FEBFFFF7FEBFFFF7FEBFF1
:10133000FFF7FEBFFFF7FEBFFFF7FEBFFFF7FEBFE1
:10134000FFF7FEBFFFF7FEBFFFF7FEBFFFF7FEBFD1
:10135000FFF7FEBFFFF7FEBFFFF7FEBFFFF7FEBFC1
:10136000FFF7FEBFFFF7FEBFFFF7FEBFFFF7FEBFB1
:10137000FFF7FEBFFFF7FEBFFFF7FEBFFFF7FEBFA1
:10138000FFF7FEBFFFF7FEBFFFF7FEBFFFF7FEBF91
:10139000FFF7FEBFFFF7FEBFFFF7FEBFFFF7FEBF81
:1013A000FFF7FEBFFFF7FEBFFFF7FEBFFFF7FEBF71
:1013B000FFF7FEBFFFF7FEBFFFF7FEBFFFF7FEBF61
:1013C000FFF7FEBFFFF7FEBFFFF7FEBFFFF7FEBF51
:1013D000FFF7FEBFFFF7FEBFFFF7FEBFFFF7FEBF41
:1013E000FFF7FEBFFFF7FEBFFFF7FEBFFFF7FEBF31
:1013F000FFF7FEBFFFF7FEBFFFF7FEBFFFF7FEBF21
:10140000FFF7FEBFFFF7FEBFFFF7FEBFFFF7FEBF10
:10141000FFF7FEBFFFF7FEBFFFF7FEBFFFF7FEBF00
:04000005080012E5F8
:00000001FF
