:020000040800F2
:100000007005002041310008BD300008BF300008F5
:10001000C1300008C3300008C530000800000000EF
:10002000000000000000000000000000C7300008D1
:10003000C930000800000000CB300008CD300008B7
:1000400065310008693100086D3100087131000820
:1000500075310008793100087D31000881310008D0
:1000600085310008893100088D3100089131000880
:1000700095310008993100089D310008A131000830
:10008000A5310008A9310008AD310008B1310008E0
:10009000B5310008B9310008BD310008C131000890
:1000A000C5310008C9310008CD310008D131000840
:1000B000D5310008D9310008DD310008E1310008F0
:1000C000E5310008E9310008ED310008F1310008A0
:1000D000F5310008D1300008F9310008FD31000881
:1000E0000132000805320008093200080D3200080C
:1000F0001132000815320008193200081D320008BC
:100100002132000825320008293200082D3200086B
:100110003132000835320008393200083D3200081B
:100120004132000845320008493200084D320008CB
:1001300051320008000000000000000055320008A5
:10014000593200085D32000861320008653200084B
:10015000693200086D3200087132000875320008FB
:10016000793200087D3200088132000885320008AB
:10017000893200088D3200080000000000000000F5
:1001800091320008953200082DE9F14FB2B099463E
:10019000924600230691CDE900333C9A0F930DF16E
:1001A0004A0114914A7011E0329E57462C4617F8C6
:1001B000011B0698B0470028069000F026810F9892
:1001C000401C641E0F90F2D13296AA449AF80000A7
:1001D000252808D10021002209910A920B910C9246
:1001E0000D910E920FE06A464FF0FF31504601F03C
:1001F0007FF8050002D10F9800F066BED4D5012526
:10020000E3E741F001011AF8010F2028F9D0232873
:100210000CD02B2804D02D2805D0302809D00BE095
:1002200041F00201EFE741F00401ECE741F0080181
:10023000E9E741F01001E6E72A280FD1D9F80020BC
:1002400052F8040BC9F800200028119003D5404251
:10025000119041F004010AF1010A14E01192DFF853
:10026000EC3B0AE01198984205DA00EB800402EBBF
:100270004402303A11920AF1010A9AF80020A2F1E0
:1002800030000A28EED39AF800002E2803D04FF051
:10029000FF32109229E01AF8010F2A2809D1D9F863
:1002A000000050F8042BC9F8000010920AF1010A6E
:1002B0001BE02D280CBF0AF1010A00200022109239
:1002C000DFF8882B0BE040B9109B934205DA03EB73
:1002D000830504EB4504303C10940AF1010A9AF8B6
:1002E0000040A4F130030A2BEDD3ADF848100FF60F
:1002F00060309AF8001001F005F808B11AF8010B07
:100300008DF84A009DF84A00682805D19AF8000047
:1003100068280CD1622106E06C2804BF9AF800001E
:100320006C2804D171218DF84A100AF1010A1FA826
:1003300008901AF801BBBBF125012DD01C3900F043
:100340006181091F022940F25D810E392AD0491FBF
:1003500000F0B284093900F05581891E00F048850B
:10036000491E00F0F484491E022940F24B81091F06
:1003700000F0ED84491F00F0BA80491E00F09C8413
:10038000491E65D0C91E21D0891E00F09584C91E62
:1003900000F0928400F04BBD25238DF87C300121C4
:1003A00009912AE06C208DF84A00D9F8000050F835
:1003B000042BC9F80000002A43D11499487800287A
:1003C0003DD04FF0FF340FF6902012E09DF84A0028
:1003D0006C28EAD0D9F8000050F8044BC9F80000A6
:1003E0000794D4B91499487898B14FF0FF340FF6B8
:1003F000842000F0A1FF201A07D132981FAA04A977
:1004000000F065FD00287FF5E1AE4FF0FF3000F011
:100410005BBD0FF67C200790EFE7109D002D04D503
:10042000204600F0A9FF044607E02A46204600F0D7
:10043000BFFF002814BF041B2C460A94DDE70FF60B
:100440005422329804A900F0C8FD0028D5D5DCE775
:10045000D9F8001051F8040BC9F8001020F000047E
:10046000002121F0FF351FABCDE904450793DDE9FD
:10047000042308993C2413B90AB9109898B102F0E2
:100480000F053035641EEEB23A2EA8BF273512098B
:1004900042EA03721B090D5508BF002A03D00798D2
:1004A0000D19A842EBD308190790C4F13C0210982B
:1004B0000A92824209DABDF84810821A4FF6EF70AC
:1004C00001400C92ADF8481097E7002895D59DF8AB
:1004D000480000F0140010288FD1119B09990C9846
:1004E0005B1A1B1A9A1A002A87DD0C9285E7149969
:1004F000487820B14FF0FF340FF69C1079E79DF853
:100500004A00622862D0682819D06A2840D06C2836
:1005100006D071284DD074282DD07A281ED064E0E2
:10052000D9F8001051F8040BC9F8001020B94FF0A9
:10053000FF340FF67C105CE70F9901605DE7D9F896
:10054000001051F8040BC9F8001020B94FF0FF3427
:100550000FF65C104DE70F9901804EE7D9F80010B7
:1005600051F8040BC9F800100028E5D14FF0FF3412
:100570000FF63C103DE7D9F8001051F8040BC9F80C
:1005800000100028D8D14FF0FF340FF6241030E7C8
:10059000D9F8001051F8040BC9F8001020B94FF039
:1005A000FF340FF60C1024E70F9AD317C0E900238D
:1005B00023E7D9F8001051F8040BC9F800100028FF
:1005C000F2D14FF0FF340FF6E80012E7D9F800102F
:1005D00051F8040BC9F8001020B94FF0FF340FF6A2
:1005E000D00006E70F99017007E7D9F8001051F81D
:1005F000040BC9F8001000289ED14FF0FF340FF60D
:10060000B000F6E6D9F80020D21D22F00702C9F8A2
:100610000020D2E900010832C9F80020CDE9040128
:10062000C80F02D009982D210AE0BDF848008107C3
:1006300002D509982B2103E0C00705D50998202190
:100640001FAA1154401C09901FA809994BF02002C1
:100650004318DDE90401CDE92E01612A079315ACA9
:100660000BD01098002802D50620109005E001BF9D
:100670004BF02000672801211091DDE904014800BA
:100680004015401C0A4611D109030FD0ABF161059A
:1006900003201A2D0A9002D20FF6A03101E00FF6C6
:1006A000A0310322184600F0AFFEA6E650B91203AF
:1006B00008D1ABF1610503201A2D0A9016D30FF66D
:1006C0008831EEE7DDE90401CDE93001DDE93023D1
:1006D00023F00047B7F5801F22F000060DD200225C
:1006E000002F08BF002E029203D116E00FF65431FE
:1006F000D7E702AA00F094FE0FE0DFF8F00ADFF877
:10070000F01A00EB17500290DDE930234FF0FF3074
:100710001940DFF8E07A10403943CDE904014BF08D
:10072000200061280DD1079830210170821CBBF197
:10073000610F07920CBF7821582141700998801CE5
:100740000990DDE9040120F0000231F0004308BF08
:10075000002A02D10026002571E14BF02008B8F1F3
:10076000610F40F0BE801098002847BF21210391FF
:10077000401C0390039FDDE92E017F1C0022002313
:10078000DDE9044500F084FE02998DF8542038BF5D
:1007900085F00045091F002F02910DF155065DDD22
:1007A000DFF8541ACDE9302140F2FF732E93204632
:1007B00029460022002300F083FE4FD24800400D5E
:1007C00000F11C0315D0002B13DD2E9883420ADBA9
:1007D000DDE9300121F0004005F000420243DDE98F
:1007E0003001114611E06FF31E5141EA03512046DA
:1007F0000BE024F0000035F0004108BF00280FBFD7
:1008000029461C22294600F073FE04460D4600F0DE
:100810000DFFFF1F002F804609DD00F025FF024677
:100820000B462046294600F031FF04460D46F01DD8
:100830000721B8F1000F0CDD491E5EBF08F00F0262
:1008400000F8012D4FEA2818F3D502E0002200F845
:10085000012D491EFAD5C61D002FA8DC0DF155004B
:10086000361A03988642D8BF304600280DF1550449
:1008700030D4B04206DA0DF155010A5C082AA8BF4F
:100880000F2100DA0021024615AB134400E0401EA0
:1008900013F80159521E8D42F9D00F2904D10DF1E0
:1008A00055018B5C5B1C8B54002A04D50299091DF1
:1008B00015AC401C0291411E0CD46218ABF13A06F3
:1008C00013783033DDB23A2DA8BFF318491E02F871
:1008D0000139F5D51099002940F1AF80421E1092E0
:1008E000ABE00299DFF8142947F29750414391FB9E
:1008F000F2F2DDE92E45029225F00045D2F1070221
:1009000004DD2046294600F04DFC0BE05242002059
:10091000DFF8EC1800F046FC02460B46204629465C
:1009200000F026FF0446B8F1660F109806BF029F3C
:100930000A3706273F18142FC8BF142730208DF818
:1009400054000D460020DFF8BC18CDE92E010DF152
:100950005506002F33DD2046294601F02DF80146CB
:100960000A4606F1080304200A26B2FBF6F606EB57
:10097000860EA2EB4E02303203F8012C0A22B6FB9F
:10098000F2F202EB820EA6EB4E063036401E03F862
:10099000026DE9D1083F002F03F10806D9DD0846B2
:1009A00001F01EF802460B462046294600F06EFE76
:1009B000DDE92E2301F022F804460D46CBE70DF1C8
:1009C0005500361A0DF1550404E00298401E761EBB
:1009D0000290641C20783028F7D0B8F1660F02D15D
:1009E0000299491C04E0B8F1650F0CBF01210021F8
:1009F000109808188642B8BF701E00281DD4B04257
:100A000004DA215C3429C8BF392100DC30210246D8
:100A1000631E9D1800E0401E15F80169521E8E42AB
:100A2000F9D0392902D1A15C491CA154002A04D56E
:100A30000299491C1C46401C02910646029D00F08A
:100A40005BFC406A0778DDF8408030B2002802DCA9
:100A500001260FF2F8744BF02000662808BF6D1CC9
:100A600016D0672846D128B210F1040F48DB404564
:100A700046DA9DF848006D1C010703D430B24045AA
:100A8000B8BF804628B2B8EB000848BF4FF0000856
:100A90000FFA85FB07980A99BBF1000F00F3B280AB
:100AA0004A1C0A9230234354B8F1000F03DC9DF82E
:100AB0004800010704D50A98411C0A9107990F5470
:100AC00018EB0B0FB8BFC8F100052DB268420D90AE
:100AD000A84432B29045B8BF4646079B0A9836B242
:100AE0000B9632462146184400F08EFCA8EB060017
:100AF0000E90CBE0BBF1610F17D14FF0700B19E0F6
:100B000030B2404504DA9DF848100A0758BF8046C5
:100B1000B8F1010848BF4FF00008BBF1670F14BFE0
:100B20004FF0450B4FF0650B04E0BBF1410F08BFE0
:100B30004FF0500B0A98411C0A91B8F1000F079929
:100B400014F8012B0A5403DC9DF8480001071AD55C
:100B50000A98411C0A91B8F1000F07990F5412DD51
:100B6000761E30B2804507980A9BB8BF464632B21F
:100B70002146184400F048FC0A9936B271180A91CF
:100B8000A8EB06000D9007980A9908442AB2002A9B
:100B900080F800B003D42B224270811C04E02D2188
:100BA00041701546811C6D4200202EAA0A2409E0DE
:100BB0002B4693FBF4F505EB8506A3EB460302F801
:100BC000013B401C2DB2002DF2DC012806DC4BF06D
:100BD0002002652A04BF302201F8012B00282EAA2A
:100BE00008D1302001F8010B06E0401E135C3033C1
:100BF00001F8013B0028F8DC079A0A981044091A0A
:100C00000B9143E0084431B22AB2914219DA32B270
:100C1000214600F0F9FB0A9936B27118ABEB0606D3
:100C2000B8F1000F0A910D9603DC9DF84800020709
:100C300004D5079847540B99491C0B91CDF838807F
:100C400024E0214600F0E0FB0A98761B5844B8F1F6
:100C5000000F0A9003DC9DF848100A0703D5411CD9
:100C60000A9107990F5430B2804507980A9BB8BF84
:100C7000464632B204EB0B01184400F0C5FB0A985B
:100C800036B230180A90A8EB06000D909DF8480087
:100C900000F0140010287FF4B0AB099A0A990D985F
:100CA0008A180B9982180E988A1882181198824215
:100CB000BFF6A3AB821A18E49DF84A00622808D058
:100CC00068280ED06A2814D06C281FD0712810D044
:100CD0001CE0D9F8001051F8040BC9F80010C0B29C
:100CE0001AE0D9F8001051F8040BC9F8001080B2CE
:100CF00012E0D9F80020D21D22F00702C9F8002026
:100D0000D2E900010832C9F8002006E0D9F8001045
:100D100051F8040BC9F800100021CDE904019DF839
:100D2000480001075AD5DDE90423002B08BF002A3B
:100D300054D04BF02000782850D109981FA93022B8
:100D40000A54401C431C099301F800B046E09DF88A
:100D50004A00622808D068280ED06A2814D06C286F
:100D60001FD0712810D01CE0D9F8001051F8040BE6
:100D7000C9F8001040B21AE0D9F8001051F8040B7D
:100D8000C9F8001000B212E0D9F80020D21D22F0FC
:100D90000702C9F80020D2E900010832C9F8002092
:100DA00006E0D9F8001051F8040BC9F80010C1177B
:100DB000CDE90401002902D509982D210AE0BDF8EA
:100DC0004800810702D509982B2103E0C00705D50B
:100DD000099820211FAA1154401C09901FA80999A5
:100DE0000144079104A8594600F057F9FFF705BBE5
:100DF0009DF84A006C280BD001210991D9F8000018
:100E000050F8041BC9F800008DF87C10FFF7F5BA04
:100E1000D9F8000050F8041BC9F8000015914FF0F4
:100E2000FF3210920021169115AAFFF70ABB252167
:100E30000122BBF1000F8DF87C1009923FF4DDAA6E
:100E40008DF87DB00221FFF7ABBA0000CBCCCC0C03
:100E5000686A6C747A4C00007072696E74665F73B5
:100E60003A2062616420256C7320617267756D653C
:100E70006E7400007072696E74665F733A2062610E
:100E80006420257320617267756D656E74000000C3
:100E900000000000000000007072696E74665F73ED
:100EA0003A20256E20646973616C6C6F776564000D
:100EB0007072696E74663A2062616420256E2061EA
:100EC0007267756D656E740033B0BDE8F08F2DE903
:100ED000FC410F46064690467A6B7869396ABC6ACF
:100EE000121AB869521A796A121AF869521A121A41
:100EF00097F83800141B41070FD42020002C8DF8E0
:100F000000000ADD254601236A463946304600F0D6
:100F10007DF900285DD16D1EF5D17B6942463946C9
:100F2000304600F073F9002853D130208DF80000CE
:100F30003D6A002D09DD01236A463946304600F03E
:100F400065F9002845D16D1EF5D1BB69FA683946AF
:100F5000304600F05BF900283BD130208DF80000CE
:100F60007D6A002D08DD01236A463946304600F0CF
:100F70004DF970BB6D1EF6D1F868B969FB6942186E
:100F80003946304600F042F918BB30208DF8000099
:100F9000BD6A002D08DD01236A463946304600F05F
:100FA00035F9B0B96D1EF6D197F8380041070DD567
:100FB0002020002C8DF8000008DD01236A46394608
:100FC000304600F023F920B9641EF6D10020BDE8B8
:100FD000F6814FF0FF30BDE8F6812DE9F8470D4668
:100FE000A3B02F6B002F8246904648BF6FF000479A
:100FF00000F0D5FD696B401801AA0021C2E900117B
:10100000812828BF4FF0FF3044D289461EE0A74216
:1010100030DB6869201881280BD30021696303AA9B
:1010200029465046FFF753FF5FEA000922D400200B
:10103000686103AB6E6922466946981900F0E4F9CD
:10104000A6196E6158F8040BA0B13F1B002F11DDEB
:10105000D8F8001001AA684600F04CF90446002CAC
:1010600005D4D8F800000028D1D1641ECFD54FF0A8
:10107000FF390EE0B9F1000F504604D103AA29460A
:10108000FFF725FF8146B9F1000F02D1002068610A
:101090006863484624B0BDE8F0872DE9FC43074665
:1010A0006F293E6908BF082405D041F02000782848
:1010B00014BF0A2410243C25D7E90023642918BF53
:1010C00069299046994605D1002B03D5D8F100082F
:1010D00069EB4909B9F1000F08BFB8F1000F0CD155
:1010E000386B50B9082C39D197F83800010735D53D
:1010F00030203B2586F83B0030E08DF8001040465C
:1011000049462246E31700F04FFD3032D0B26D1E43
:101110003A28019504DB9DF80000A0F151018A18DE
:101120007255404649462246E31700F03DFD804691
:101130005FEA010908BFB8F1000F03D0F868711920
:101140008842DCD3082C09D197F83800010705D56F
:10115000705D302802D06D1E30207055C5F13C0204
:10116000BA617119F960386B824208DA821A3A6200
:101170004FF6EF70398F01403987BDE8F3830028BF
:101180000ED597F8380000F01400102808D17B6BBA
:101190007969386A5B1A1B1A9A1A002AC8BF3A6220
:1011A000BDE8F3832DE9D04306460F4614464FF0C1
:1011B0000008DFF8549012E0E00707D542464B469E
:1011C0003046394600F01AFC06460F46404649466E
:1011D00042464B4600F012FC641080468946002CC3
:1011E000EAD130463946BDE8D083000002FCFFFF5B
:1011F000FFFF0F800000E03F0000F07FA0860100AD
:101200000000F03F84D7974100002440F8B5054620
:101210000E4617461C4600205CB117F8011BB0684B
:10122000A847B06030B1F06A401CF0620020641E34
:10123000F3D1F2BD4FF0FF30F2BD00006E616E00E1
:101240004E414E00696E6600494E4600300030B493
:10125000002513E050F8042BD30744BFA9F1010384
:101260009A18091F042942F8045BFAD213468C0726
:1012700044BF15809B1CC90748BF1D7050F8041B54
:101280000029E7D130BC70471C48704770B45368E0
:10129000D41801E05B1C491E042B08DA00291FBF8B
:1012A000057804F8015B10F8016B002EF2D1536051
:1012B00070BC704738B514461D4661B1FFF7E6FFB4
:1012C00061686A6B204690476FF00102811A02D074
:1012D000491E01D001E003E005E00021616032BD5C
:1012E0006FF0010032BD4FF0FF3032BDDA6B1047B6
:1012F000024BDFE7014BF9E7014870474800002047
:1013000010000020C9B202788A421AB11CBF10F83E
:10131000012FF9E718BF00207047B1F5807F02D395
:101320004FF0FF3070470170012070470078401E79
:101330008041C043C00F704780B500B906A0054981
:101340000B681BB122220021984701E000F0AFFC9E
:10135000222002BD68010020636F6E7374726169A0
:101360006E742068616E646C65723A2062616420FC
:101370006D6573736167650000F10103810704D037
:1013800010F8011B820781B1FAD10268A2F1013184
:10139000914311F0803104BF50F8042FF6E709BAE9
:1013A000B1FA81F100EBD100401CC01A70472E0049
:1013B000C9B2830706D0521E22D310F8013B9942CE
:1013C000F7D11FE0083A13D302F1040241EA0121E8
:1013D00041EA014150F8043B121F21BF4B40A3F1E9
:1013E000013C2CEA030C1CF0803FF3D0C9B2001F73
:1013F000083210F8013B521E28BF91EA030FF8D8BB
:1014000018BF0120401E70474AB1000011F8013B8F
:10141000521E00F8013B1CBF11F8013BF8E7704772
:1014200010B5144600F002F8226010BDC1F30A5353
:1014300043B14A0012F5001F28D2A3F2FE32A1EBFD
:101440000251704750EA410C20D001F0004C31EAC3
:101450000C01B1FA81F204BFB0FA80F3D2180B3A52
:10146000B2F120032CBF00FA03F1914041EA0C01D4
:101470003EBFC2F1200C20FA0CF3194390405242B7
:1014800040F2FD33D21A01EB03517047002270473E
:101490004FF4001C1CEB410F94BF1CEB430F09E001
:1014A00041EA030C50EA4C0C52EA0C0C03D299426C
:1014B00008BF9042704714BF8B428242704743007E
:1014C0004FF4001C1CEB410F94BF1CEB430F09E0D1
:1014D00041EA030C50EA4C0C52EA0C0C03D28B424A
:1014E00008BF8242704714BF994290427047000083
:1014F000124254D440F2FF7C1CEA11530FD06345D2
:1015000031D09B1863453CBF01EB0251704701F09D
:10151000004141EA0C510020AFF30080704750EACF
:10152000410320D001F0004C91EA0C011CD0B1FA2B
:1015300081F30B3B9A420DD9D21A994051EA0C0122
:10154000C3F1200C20FA0CFC61449840531C40F27B
:10155000FF7CD7E7914041EA0C01C2F1200C20FA50
:101560000CF3194390407047B0FA80F31533202BE9
:10157000E0D3202AEED3203A203B9A4209D9D21A4E
:1015800000FA03F141EA0C010020531C40F2FF7CF9
:10159000B8E700FA02F141EA0C010020704752421C
:1015A00040F2FF7C1CEA11530DD06345DBD0B2EB57
:1015B000030C3CBFA1EB025170470CF1010221EA80
:1015C000035141F4801150EA410CCCD001F0004CA1
:1015D000352A27DC30B481EA0C01B2F1200309DAA4
:1015E000C2F12003044601FA03F5D0402843D1405C
:1015F0009C400CE0C3F12002450020FA03F418BF20
:1016000044F0010421FA03F091400C43002174F1ED
:10161000004550F1000051EB0C01244230BC7FF436
:101620007BAF70476146002076E70000C1F30A53A4
:1016300040F2FE329B1A14DDD3F120034FEAE1722F
:1016400008DDC90241EA505141F00040D8408018FD
:101650005040704703F2E13010B1D24382F00040B5
:101660007047002070470000C11768B14840401A19
:10167000B0FA80F29040D21CC907C2F5846241EAF8
:10168000025202EBD02140057047000070B44FF0C9
:10169000004591EA030F40F10D836B40841A71EB12
:1016A000030603D2001BB141121973414FF4001C11
:1016B0001CEB410F34BF7CEB430442E00C0DA4EB68
:1016C0001356352E4FDC45EAC323DB0A45EAC12118
:1016D000C912B6F120050DDD63FA05F6EB4086EA86
:1016E0000305124218BF45F00105C01851F1000171
:1016F0000CD213E062FA06F5F2405540F3415A402D
:10170000B340F3405A408018594107D349085FEA73
:1017100030005FEA350528BF45F0010501F580116D
:10172000420875F1004250F1000041EB04514E00B7
:1017300016F5001F70BC38BF70470020090D090561
:1017400070471CEB410F10D252EA43060BD0BCEBA2
:10175000410F05D80C0DAB43661E342EB6DD02E0FA
:10176000AB438018594170BC704770BC7047000093
:10177000F0B540F2FF7581EA030C0CF0004C15EA5D
:1017800011541DBF15EA1357AC42AF42E5E0BC410E
:10179000C1F31301C3F31303801A994143F4801377
:1017A00004D2641E4000494180185941C90241EAEF
:1017B0005051B1FBF3F603FB1611A2FB0675D7EBF4
:1017C000C020A94102D2761E80185941C90241EABF
:1017D0005051B1FBF3FE03FB1E11A2FB0E75D7EBBC
:1017E000C020A94103D2AEF1010E801859418902EF
:1017F00041EA9051760546EA8E2EB1FBF3F603FBE3
:101800001611A2FB0675D7EB8020A94102D2761EE5
:1018100080185941C90241EA50514EEA060EB1FB07
:10182000F3F603FB1611A2FB0675D7EBC020A94106
:1018300002D2761E80185941C90241EA5051B1FBCB
:10184000F3F703FB1711A2FB0735D3EBC020A94127
:1018500067F100070CBF004247F0010766F3D52788
:101860004FEA1E31B80814F5806412DDBD0775F12A
:10187000004250EB0E5051EB045111F5801F5CBF3C
:1018800041EA0C01F0BD4CF07F6141F0E0410020E5
:10189000F0BDBD076D0840EA0E5041F48011D4F14F
:1018A0000104B4F120060ADAC4F120060200E04087
:1018B00001FA06F3E1401843B24015430EE0342C20
:1018C00013DCC6F1200445EA40056D0820FA06F253
:1018D000154321FA06F0A1400D43002175F10042A5
:1018E00050F1000051EB0C01F0BD00205FEA0C014B
:1018F000F0BDCFB992185B41B3FA83F704BFB2FAD7
:1019000082F6BF190B3FB7F120062FBF02FA06F38C
:10191000BB40C7F1200622FA06F638BF3343BA406F
:101920001CB1E419641E33E77F4231F00041B1FA83
:1019300081F404BFB0FA80F6A4190B3CB4F1200680
:101940002FBF00FA06F1A140C4F1200620FA06F6E6
:1019500038BF3143A0403C1B1AE7AC421ABF05EA2E
:101960001357AF4212E050EA41061CBF52EA430649
:10197000BFE750EA4107304661461CBF41EA0551C6
:10198000F0BD52EA430C08BFC143F0BD00204FF444
:10199000001616EB410F98BF16EB430F08BF16EB6E
:1019A000410F24BFC14305E016EB430F0CBF614656
:1019B0004CEA0551F0BD0000400D491840EA812075
:1019C0000CD2490DA1F58061491C40F0004005DBB7
:1019D000D1F11F0154BFC840C017704700207047A5
:1019E000014648B1B0FA80F18840C91CC1F5846154
:1019F000090501EBD021400570470000B0B581EA30
:101A0000030C0CF0004C40F2FF7515EA11541DBF99
:101A100015EA1357AC42AF4239E0E41923EA4553C3
:101A200043F48013C90241F0004141EA505EC7020D
:101A30001100A7FB020200284FF00000EEFB01207E
:101A40004FF00001E3FB072118BF42F001024018EC
:101A500000214941E3FB0E01A4F580640F0302D28B
:101A600052004041494154F101046CDD470872F1D4
:101A7000004250F1000051EB0451A1F580115CBF10
:101A800041EA0C01B0BD4CEA05510020B0BD05EAA9
:101A90001357AC4214BFAF4241E050EA410E1CBFA5
:101AA00052EA430E02E061460020B0BD24423C44AD
:101AB0001BD15FEA070EF6D0090302BF01460020E2
:101AC000AEF1140EB1FA81F7AEEB070401FA07FE8E
:101AD0000C37C7F1200100FA07F7C8404EEA000EA4
:101AE00023EA455343F48013A2E733F00043B3FAEB
:101AF00083F704BFB2FA82FE77440B3FE41BB7F1D1
:101B0000200E2FBF02FA0EF3BB40C7F1200E22FABF
:101B10000EFE38BF43EA0E03BA40641C82E750EA67
:101B2000410E14BF52EA430E6FF000014FF400174C
:101B300017EB430F8ABF194617EB410FB5E74CEA85
:101B400005510020B0BDD4F10104B4F120070FDA33
:101B5000C4F12007520828BF42F0010210FA07F52D
:101B600001FA07F7E1BF2A43E0403843E1400FE0C4
:101B7000352C98DCC7F1200452EA400220FA07F223
:101B800018BF42F0010231FA07F0A1400A430021D8
:101B900072F1004250F1000051EB0C01B0BD80B574
:101BA000FFF772FB006C02BDD3BBD9B1B2F5803F29
:101BB0005BD2022A1ED98C46B1FBF2F102FB11C3A3
:101BC0001B0443EA1043B3FBF2FC02FB1C3380B25C
:101BD00040EA0343B3FBF2F002FB103240EA0C4050
:101BE00000237047022A05D98446B0FBF2F002FBBD
:101BF00010C270474AB105D100F0010249085FEAFE
:101C00003000704700220023704700F009B90B0034
:101C10000200002100207047F7D300220023704704
:101C2000904271EB030CF2D370B5B1FA81F4B3FAC0
:101C300083F52C1BA340C4F1200532FA05F633438B
:101C4000A2405FF00046E64002E05B085FEA320235
:101C5000841A71EB030524BF204629467641F4D34C
:101C600002000B003000002170BD70B5B1FA81F4A4
:101C7000B2FA82F5C4F120046419B4F12006DAD373
:101C8000B2405FF00044F440002502E052085FEAF1
:101C90003303C61A71EB020E24BF3046714664410D
:101CA0006D41F3D302000B002000290070BD01201C
:101CB00000F0B8B8841A71EB030604D26E40001B22
:101CC000B141121973414FF4001C1CEB410F34BF9A
:101CD0007CEB430683E00C0DA4EB1356362E00F389
:101CE0007C80012E45EAC32341DC43EA525312BFF4
:101CF000D20292025B08240545EAC12141EA505113
:101D0000D2EBC020994125D407D1B0FA80F610FA61
:101D100006F162D00020203608E0B1FA81F6B14029
:101D2000C6F1200220FA02F21143B0404FEAF474E7
:101D3000B4EB465434F001064FEA74040AD8D6F5E1
:101D40000016760D04F00044F04061FA06F25040AF
:101D5000F1404840C00A40EA415021F0004128BF0C
:101D60005FEA500550F1000044EBD12135E0DB0A79
:101D700045EAC121C90AB6F120050EDD42EA024258
:101D8000120CC5F1200603FA06F6EB4042EA0605FE
:101D90006D42984161F100010DE062FA06F5F240F2
:101DA000554063FA06FC82EA0C02F3405A406D4249
:101DB000904161EB030111F4801F05D1641E62059F
:101DC00002D06D004041494121F48011430875F172
:101DD000004350F1000041EB045170BC70471CEB14
:101DE000410F15D223F0004352EA43060BD04FEACD
:101DF0004C0CBCEB410F04D80C0D661E342EB7DD25
:101E0000EBE7801A994150EA410608BF0021E4E758
:101E100008BF1CEB430F28BF6FF00001DDE7000097
:101E20007047000080B5AFF30080024A110018200F
:101E3000ABBEFBE72600020038B5040001D101204B
:101E400032BD00F021F808B900F022F800F012F8D5
:101E500000F023F8FFE7416100F001F832BD20688F
:101E6000C16841F40051C1600020686020216970A0
:101E7000A9707047242068702068C16821F400515F
:101E8000C160204600F0DBB904F13805687870477E
:101E900000212970204600F05CBA2068016921F415
:101EA000904101612068416921F02A0170472DE9C4
:101EB000F843054605F138070C4678782028164681
:101EC000984646D1002C14BF002E012042D038780D
:101ED00001283ED0012139700020786021227A70DB
:101EE00000F07AFA8146AE84EE840020387003E078
:101EF0002A6814F8011B5160E88CE0B1E88C411E9F
:101F0000E9844B46A868CDF80080B0F5805F0DD11C
:101F100000F022F8B8B920882968C0F308004860AA
:101F20002869002814BF641CA41CE5E700F014F81D
:101F30000028DDD007E0CDF800804B46002240218C
:101F400000F00CF808B1032004E020207870002095
:101F500000E00220BDE8F283002280212846DEE076
:101F600010B500F138039C78202C22D109B114005F
:101F700001D1012010BD1C78012C1AD001241C7045
:101F800081628285C2850021596022229A7019706F
:101F90000168CA6842F48072CA6001684A6942F006
:101FA00001024A610068C16841F02001C16000205F
:101FB00010BD022010BD416921F040014161606BFC
:101FC000704770B5044620680368C668456913F019
:101FD0000F0206F0200003F0200107D1002918BFEE
:101FE00000285BD02046BDE87040DFE0EA0702D45D
:101FF00016F4907F52D0DA0705D5F60503D5E26BCB
:1020000042F00102E2635A0705D5EE0703D5E26B01
:1020100042F00202E2639A0705D5EE0703D5E26BB0
:1020200042F00402E2631A0706D508B9EA0703D5AD
:10203000E36B43F00803E363E26B002A6ED00029F0
:102040001EBF0028204600F0B1F820684069E16B0F
:102050000A0701D440061BD5204600F092F82068FC
:1020600041694A060FD5FFF7A6FF60B10FF23111A3
:102070000165606B00F0B6F900284FD0606B016D10
:10208000BDE8704008472046BDE8704000F0BCB98C
:10209000204600F0B9F90020E06370BD18062CD589
:1020A00031062AD594F83900212837D1A068B0F537
:1020B000805F206A0CD101882268C1F30801516059
:1020C00020690028206A0CBF811C411C216204E0A9
:1020D000411C2162226800785060E08C401EE08440
:1020E00080B2D8B92068C16821F08001C160206841
:1020F000C16841F04001C16070BD58060ED571063F
:102100000CD52068C16821F04001C1602046202123
:1021100084F83910BDE8704000F077B970BD2DE942
:10212000F041069C05460E4690461F462868016809
:102130003140B1420CBF01200020404517D114F1BD
:10214000010FF3D024B100F047F9C01B8442EDD257
:102150002868C16821F4D07100F00CF805F138004E
:1021600020214170817000210170032000E00020D7
:10217000BDE8F081C16028684169490849004161B2
:1021800070470168CA6822F49072CA6001684A699F
:10219000520852004A61202180F83A10704700002E
:1021A000806B0021C185C18400F02EB980B590F804
:1021B0003A10222941D18168B1F5805F12D10169BD
:1021C0000368826A0029596805D1C1F308011180AA
:1021D000826A911C04E001F0FF011180826A511CA7
:1021E00081620FE001690029816A04D14A1C826280
:1021F00003685A6805E04A1C826203685A6802F064
:102200007F020A70C18D491EC18589B299B90168E2
:10221000CA6822F02002CA600168CA6822F480728B
:10222000CA6001684A69520852004A61202180F858
:102230003A1000F0B2F9002002BD022002BDD0B574
:102240000646642732681169F06821F44051014361
:1022500011611924D3682D48B168034030690B43DC
:1022600071690343F0690B430343D3605169B0695B
:1022700021F4407101435161F36925482549B3F5C3
:10228000004F1FD18A4218BF824202D100F05CFA8F
:1022900001E000F051FA0246A4FB02017268D30F7C
:1022A0005200FFF781FC00F037F8FF00323764205E
:1022B000B7FBF0F0420002F4F87202EB011200F0FA
:1022C00007001DE08A4218BF824202D100F03CFAAA
:1022D00001E000F031FA0246A4FB02017268930F9C
:1022E0009200FFF761FC00F017F83F0132376420DD
:1022F000B7FBF0F000F0F00202EB011200F00F006B
:10230000316880188860D0BD00000000F369FFFFCD
:1023100000140140001001406421B0FBF1F107FB03
:102320001107704780B52848284901604FF4E13211
:1023300000230C2142608360C360036141618361BB
:10234000C361FFF779FD18B1BDE8014000F04CB959
:1023500001BD10B586B004461422002101A800F08A
:102360003BFA2168194881422CD10022184800927A
:10237000416941F010014161416901F01001009192
:10238000009900924FF4C061036843F001030360B9
:102390000222006800F00100009000980D480191B1
:1023A000029200210391032207210591049201A9C1
:1023B00000F01CFA00220021252000F023FB25203C
:1023C00000F03DFB06B010BD2801002000100140C8
:1023D000303802400000024001484068704700BFAA
:1023E0000000002090F83510022903D080224265B9
:1023F00001207047052180F83510006802685208F6
:102400005200026000207047704770474FF4FA7026
:1024100000F040BB01B50A23012269466D48FFF771
:1024200046FD009802BD00002DE9F84D8BB000F08C
:1024300045FB00F067F800F05BFBFFF773FF644CAF
:10244000644801222146FFF78BFD00BF6DA15F4D5F
:102450000FF298180FF2B41AD1E90023CDE9002346
:1024600002A85D492422FEF7CFFF02AE1AE0312810
:1024700018D0404600F07CFB00273DF817100122E1
:1024800000F03DF87F1C042FF7DBFFF7BFFF0027AC
:102490003DF81710002200F032F87F1C042FF7DB04
:1024A000FFF7B4FF22786178504600F061FB217895
:1024B00060783129DBD0322917D13228F2D000BF21
:1024C0004DA000F055FB00272078322809D136F8BE
:1024D00017B0012200F012F8FFF798FF002200F079
:1024E0000DF87F1C0A2FEFDBDCE73329DAD1332824
:1024F000D8D000BF4BA000F03BFBD3E7594628469D
:1025000000F04BBA80B592B03022002106A800F04E
:1025100063F91422002101A800F05EF90020009068
:102520004FF480332D48016841F080510160002153
:10253000006800F0805000900098294800910268DF
:1025400042F4804202600122006800F48040009062
:1025500006A80099069202214FF480020C910D9278
:102560000421A8220E910F920221042207931091B8
:10257000119200F011FB02210291002203920F2020
:102580004FF4A051019004914FF48052059205211F
:1025900001A800F04BF813B000BD00681149884253
:1025A00000D0704738B50A4C0A4D23786370012279
:1025B00021462846FFF7D4FC2146284601B0BDE855
:1025C00030400A230122FFF772BC000000080240DD
:1025D0006C010020280100205430000840380240DF
:1025E000007000400010014070470000094C454455
:1025F0002066756E0A00000009464E442066756E1E
:102600000A00000001000200040008006F6C642052
:102610003A2025632C206E6577203A202563200A16
:10262000000000004F46460A000000002DE9F0417E
:1026300004000F4654D0494E306800F00F00B842F5
:1026400002D200F073F84BD12068454D810712D5B6
:10265000400703D5A96841F4E051A960207801073B
:1026600003D5A86840F46040A860A968A06821F07C
:10267000F0010143A9602178C80729D560680128C5
:1026800002D129688A0305E0022818BF032803D174
:1026900029688A0103D423E029688A0720D5A9681C
:1026A000890840EA8100A860FFF796FE8046A86886
:1026B000616800F00C00B0EB810F09D0FFF78CFED1
:1026C000A0EB080041F289318842F0D303202BE0CF
:1026D000306800F00F00874204D200F027F801D0E4
:1026E000012021E02078410705D5AA68E06822F49E
:1026F000E0520243AA602178080706D5A96820693C
:1027000021F4604141EAC001A96000F035F8AA68EF
:102710001449154BC2F30312895CC8401860134872
:10272000006800F0C1FB0020BDE8F081377031681F
:1027300001F00F01B94270470B480D4A0068136859
:102740000C49C3F3822206E00748094A006813686F
:102750000849C3F34232895CC8407047003C0240DC
:10276000003802401C3000080C0000200800002047
:10277000083802405C31000830B5144C606800F045
:102780000C00042802D0082802D01DE0104830BDFB
:10279000226820680023410202F03F0204D5256828
:1027A0000B49C5F3881003E020680A49C0F388107C
:1027B000A1FB0001FFF7F8F92168C1F30141491CB1
:1027C0004900B0FBF1F030BD024830BD0438024092
:1027D00000127A000024F40010B5044610460A46A0
:1027E0000146204600F080FB204610BD2DE9F84F41
:1027F0000D4600266B496C4A0F23044601202F68C2
:10280000B04000EA0708804540F0C1804FEA460C1E
:10281000032707FA0CF76FEA070E6F68012F18BF3E
:10282000022F03D0112F18BF122F12D1A768D5F88D
:102830000C900EEA070709FA0CF949EA0707A760A6
:10284000676827EA00006F68C7F30017B74038438E
:102850006060E068AF680EEA000007FA0CF73843E2
:10286000E060B0006F68022F18BF122F12D1F70876
:1028700004EB870700F01C09D7F820A003FA09FB36
:102880002AEA0B0AD5F810B00BFA09F949EA0A0945
:10289000C7F8209027680EEA070E2F7907F0030784
:1028A00007FA0CF747EA0E0727606F68FF006ED53E
:1028B000002700974FEA960C176847F48047176087
:1028C00000F00C00176807F48047009703FA00FE39
:1028D000009F364F57F82C7027EA0E0E344FBC423B
:1028E00008BF002722D0334FBC4208BF01271DD0AC
:1028F000314FBC4208BF022718D0304FBC4208BF3E
:10290000032713D02E4FBC4208BF04270ED02D4FF3
:10291000BC4208BF052709D02B4FBC4208BF062781
:1029200004D02A4FBC420CBF0727082707FA00F043
:102930001E4F40EA0E0047F82C006FEA08000F68AF
:1029400000EA070C6F68FF0348BF48EA0C0CC1F8A7
:1029500000C04F6800EA070C6F68BF0348BF48EA31
:102960000C0CC1F804C08F6800EA070C6F68FF0206
:1029700048BF48EA0C0CC1F808C0CF6800EA070C51
:102980006868800248BF48EA0C0CC1F80CC0761C8D
:102990000F2E7FF633AFBDE8F18F02B909048161D4
:1029A00070470000003C01404438024008380140B4
:1029B000000002400004024000080240000C0240F7
:1029C000001002400014024000180240001C0240A7
:1029D0000901020002D4294881547047284B02F0B3
:1029E0000F021A4402F8041C7047264B19684FF670
:1029F000FF020002114000F4E0600843224908434E
:102A00001860704770B51F4B1C68C4F30223012483
:102A1000C3F10705052D2EBF0F2504FA05F56D1E20
:102A20001E1D072E34BF0023DB1E2940994004FAE7
:102A300003F3BDE870405B1E1A401143C8E7010074
:102A400007D4012200F01F01104B8A40400943F8CF
:102A50002020704710B5401EB0F1807F01D30120C7
:102A600010BD0B4C60600F214FF0FF30FFF7B0FF3F
:102A70000021A16007202060002010BD00E400E0DC
:102A800018ED00E00CED00E00000FA0500E100E0C8
:102A900010E000E038B50446FFF79EFC14F1010F8A
:102AA000054602D0044801786418FFF795FC401BE6
:102AB000A042FAD331BD00BF0000002080B50B4812
:102AC000016841F400710160026842F480620260B2
:102AD000016841F4807101600320FFF786FF002048
:102AE00000F0E2F900F034FA002002BD003C0240A0
:102AF00038B586B01422002101A8FFF76DFE002131
:102B000019481A4C00914FF60F75026842F0040202
:102B100002600022016801F0040100910099009216
:102B2000036843F080030360016801F080010091B5
:102B3000009900922946036843F00103036000688E
:102B400000F00100009000982046FFF726FF0121C9
:102B50000291002203920492019501A92046FFF7F9
:102B600045FE07B030BD00BF3038024000080240CB
:102B70000EB4C0B5024603A800210190009101AB3C
:102B80000121044878440C30FDF7FEFA06BC5DF8DC
:102B900010FB00BF8B0500002DE9F843040016D0A0
:102BA0002078DFF8F462C10713D5B06800F00C009C
:102BB000042807D0B06800F00C0008283DD17068E8
:102BC00041023AD53068810303D56068002800F0DF
:102BD0005E812078B14F810719D5B06810F00C0FD5
:102BE00007D0B06800F00C0008285BD17068410283
:102BF00058D43068810703D5E068012840F0478148
:102C00003168206921F0F80141EAC0013160217882
:102C1000080779D56069A249002868D001220A60B6
:102C2000FFF7DAFB0546706F81076DD4FFF7D4FB21
:102C3000401B0228F7D903202CE16068B0F5803FE3
:102C400004D1306840F48030306011E0B0F5A02F3E
:102C5000306806D140F480203060316841F4803122
:102C600005E020F480303060316821F4802131604B
:102C7000606858B1FFF7B0FB054630688103A8D4FF
:102C8000FFF7AAFB401B6528F7D3D4E7FFF7A4FBA7
:102C90000546306881039CD5FFF79EFB401B6528E5
:102CA000F7D3C8E7E068A8B101213960FFF794FBCA
:102CB00005463068810705D4FFF78EFB401B0228CC
:102CC000F7D9B8E73068216920F0F80040EAC10080
:102CD00030609CE73860FFF77FFB05463168880766
:102CE00095D5FFF779FB401B0228F7D9A3E70860C9
:102CF000FFF772FB0546706F810705D5FFF76CFB88
:102D0000401B0228F7D996E7207841075FD5306C41
:102D10000025C1000AD400950125316C41F0805195
:102D20003164306C00F0805000900098DFF87481BE
:102D3000D8F80000C10513D4D8F8000040F4807022
:102D4000C8F80000FFF748FB8146D8F80000C1052D
:102D500006D4FFF741FBA0EB09000228F5D96AE78A
:102D6000A068012805D00528306F06D140F0040086
:102D70003067306F40F0010005E0400840003067E8
:102D8000306F20F00400306741F28938A06860B1EC
:102D9000FFF722FB8146306F810713D4FFF71CFB3E
:102DA000A0EB09004045F6D345E7FFF715FB814648
:102DB000306F810706D5FFF70FFBA0EB09004045F8
:102DC000F6D338E71DB1306C20F080503064A06934
:102DD00000285ED0B16801F00C0108293AD0022821
:102DE0002AD100203866FFF7F7FA054630688101DE
:102DF00005D5FFF7F1FA401B0228F7D91BE7E06978
:102E0000216A626A0843A16A490840EA8210491EA1
:102E100040EA0140E16A40EA0160706001203866E2
:102E2000FFF7DAFA04463068810132D4FFF7D4FAAA
:102E3000001B0228F7D9FEE600203866FFF7CCFA1F
:102E400004463068810124D5FFF7C6FA001B02282A
:102E5000F7D9F0E601281AD07068E26900F4800121
:102E6000914202BF00F03F01226A91420FD147F622
:102E7000C071626A0140914202BF00F44031A26A0F
:102E8000914202BF00F07060E16A884201D00120E7
:102E900000E00020BDE8F283003802400000474215
:102EA000800E47420070004038B50D4D0D4B2A781A
:102EB00004464FF47A711868B1FBF2F2B0FBF2F0FD
:102EC000FFF7C8FD50B9102C08D2002221464FF060
:102ED000FF30FFF797FDAC60002032BD012032BD0E
:102EE000000000200C00002062F30F2262F31F425A
:102EF000401810F0030308D0C91A1FD3DB0748BFDE
:102F000000F8012D28BF20F8022D130030B414461C
:102F10001546103928BF20E93C00FAD8490728BFD8
:102F200020E90C0048BF40F8042D890028BF20F894
:102F3000022D48BF00F8012D30BC7047C91818BFDA
:102F400000F8012DCB0728BF00F8012D70470000C5
:102F500081B00020009000220A48416841F480417D
:102F60004160416801F4804100910099009203683A
:102F700043F080530360006800F080500090009898
:102F800001B0704740380240F0B4024610689568BE
:102F90001318506803EB5004C0071CD54D441AE0C9
:102FA00013F8017B05F8017B491EF9D198B113F89C
:102FB000011BC6F38106032E08BF13F8016B01EB5A
:102FC00006214942801C294405D011F8016B05F8FF
:102FD000016B401EF9D1A3420ED013F8016B16F01D
:102FE000030104BF13F8011BC91C30090F28DBD1F2
:102FF00013F8010B0F30D7E7F0BC02F10C0070475B
:103000000448054A016841F4700101604FF0006016
:103010001060704788ED00E008ED00E0000000005F
:1030200000000000010203040607080910B5074963
:1030300079441831064C7C44163404E00A68081DB3
:10304000114488470146A142F8D110BD500000004C
:103050006C000000003F0006005B004F0066006D42
:10306000007C0007007F00670077007C0039005E6D
:1030700000790071000800804EF68851CEF2000100
:10308000086840F470000860BFF34F8FBFF36F8F84
:103090004FF00070E1EE100A70470000B3E1FFFF4F
:1030A00098000000D800002000000000DDFEFFFFB7
:1030B000E80100009C000000000000207047FEE7CF
:1030C000FEE7FEE7FEE770477047704700F006B87E
:1030D0000148FEF776BF0000280100200248416841
:1030E00002788A18426070470000002000F00DF856
:1030F000002801D0FFF79AFFAFF300800020AFF364
:103100000080FFF791F900F002F80120704700F00D
:1031100001B8000007463846FEF784FEFBE738B5E5
:1031200004460D46284600F005F8A84218BF0024C2
:10313000204632BD0149FFF76DB900BF9000002065
:10314000014880470148004701300008513100081C
:10315000AFF30080FFF790FFFFF7C8FF000000000B
:1031600001020304FFF7FEBFFFF7FEBFFFF7FEBF3C
:10317000FFF7FEBFFFF7FEBFFFF7FEBFFFF7FEBF83
:10318000FFF7FEBFFFF7FEBFFFF7FEBFFFF7FEBF73
:10319000FFF7FEBFFFF7FEBFFFF7FEBFFFF7FEBF63
:1031A000FFF7FEBFFFF7FEBFFFF7FEBFFFF7FEBF53
:1031B000FFF7FEBFFFF7FEBFFFF7FEBFFFF7FEBF43
:1031C000FFF7FEBFFFF7FEBFFFF7FEBFFFF7FEBF33
:1031D000FFF7FEBFFFF7FEBFFFF7FEBFFFF7FEBF23
:1031E000FFF7FEBFFFF7FEBFFFF7FEBFFFF7FEBF13
:1031F000FFF7FEBFFFF7FEBFFFF7FEBFFFF7FEBF03
:10320000FFF7FEBFFFF7FEBFFFF7FEBFFFF7FEBFF2
:10321000FFF7FEBFFFF7FEBFFFF7FEBFFFF7FEBFE2
:10322000FFF7FEBFFFF7FEBFFFF7FEBFFFF7FEBFD2
:10323000FFF7FEBFFFF7FEBFFFF7FEBFFFF7FEBFC2
:10324000FFF7FEBFFFF7FEBFFFF7FEBFFFF7FEBFB2
:10325000FFF7FEBFFFF7FEBFFFF7FEBFFFF7FEBFA2
:10326000FFF7FEBFFFF7FEBFFFF7FEBFFFF7FEBF92
:10327000FFF7FEBFFFF7FEBFFFF7FEBFFFF7FEBF82
:10328000FFF7FEBFFFF7FEBFFFF7FEBFFFF7FEBF72
:10329000FFF7FEBFFFF7FEBF43010001221008F059
:1032A000050724F400EE1400080452FF01E3AE13F6
:1032B0001410010000BE0C214C1148F3162000012F
:1032C000122D48212C431B133C2101100302040141
:1032D00001D8442002280100200852D85061081269
:0632E000D408F212C064E4
:04000005080031516D
:00000001FF
