:020000040800F2
:1000000058040020D1160008591600085B16000895
:100010005D1600085F160008611600080000000069
:10002000000000000000000000000000631600084F
:100030006516000800000000671600086916000831
:10004000F5160008F9160008FD160008011700084B
:1000500005170008091700080D17000811170008F8
:1000600015170008191700081D17000821170008A8
:1000700025170008291700082D1700083117000858
:1000800035170008391700083D1700084117000808
:1000900045170008491700084D17000851170008B8
:1000A00055170008591700085D1700086117000868
:1000B00065170008691700086D1700087117000818
:1000C00075170008791700087D17000881170008C8
:1000D000851700086D160008891700088D1700089D
:1000E0009117000895170008991700089D17000838
:1000F000A1170008A5170008A9170008AD170008E8
:10010000B1170008B5170008B9170008BD17000897
:10011000C1170008C5170008C9170008CD17000847
:10012000D1170008D5170008D9170008DD170008F7
:10013000E11700080000000000000000E5170008BB
:10014000E9170008ED170008F1170008F517000877
:10015000F9170008FD170008011800080518000825
:10016000091800080D1800081118000815180008D3
:10017000191800081D180008000000000000000009
:10018000211800082518000838B5040001D1012005
:1001900032BD00F021F808B900F022F800F012F8A2
:1001A00000F023F8FFE7416100F001F832BD20685C
:1001B000C16841F40051C16000206860202169706D
:1001C000A9707047242068702068C16821F400512C
:1001D000C160204600F0DBB904F13805687870474B
:1001E00000212970204600F05CBA2068016921F4E2
:1001F000904101612068416921F02A0170472DE991
:10020000F843054605F138070C467878202816464D
:10021000984646D1002C14BF002E012042D03878D9
:1002200001283ED0012139700020786021227A70A7
:1002300000F07AFA8146AE84EE840020387003E044
:100240002A6814F8011B5160E88CE0B1E88C411E6B
:10025000E9844B46A868CDF80080B0F5805F0DD1E9
:1002600000F022F8B8B920882968C0F30800486077
:100270002869002814BF641CA41CE5E700F014F8EA
:100280000028DDD007E0CDF800804B460022402159
:1002900000F00CF808B1032004E020207870002062
:1002A00000E00220BDE8F283002280212846DEE043
:1002B00010B500F138039C78202C22D109B114002C
:1002C00001D1012010BD1C78012C1AD001241C7012
:1002D00081628285C2850021596022229A7019703C
:1002E0000168CA6842F48072CA6001684A6942F0D3
:1002F00001024A610068C16841F02001C16000202C
:1003000010BD022010BD416921F040014161606BC8
:10031000704770B5044620680368C668456913F0E5
:100320000F0206F0200003F0200107D1002918BFBA
:1003300000285BD02046BDE87040DFE0EA0702D429
:1003400016F4907F52D0DA0705D5F60503D5E26B97
:1003500042F00102E2635A0705D5EE0703D5E26BCE
:1003600042F00202E2639A0705D5EE0703D5E26B7D
:1003700042F00402E2631A0706D508B9EA0703D57A
:10038000E36B43F00803E363E26B002A6ED00029BD
:100390001EBF0028204600F0B1F820684069E16BDC
:1003A0000A0701D440061BD5204600F092F82068C9
:1003B00041694A060FD5FFF7A6FF60B10FF2311170
:1003C0000165606B00F0B6F900284FD0606B016DDD
:1003D000BDE8704008472046BDE8704000F0BCB959
:1003E000204600F0B9F90020E06370BD18062CD556
:1003F00031062AD594F83900212837D1A068B0F504
:10040000805F206A0CD101882268C1F30801516025
:1004100020690028206A0CBF811C411C216204E075
:10042000411C2162226800785060E08C401EE0840C
:1004300080B2D8B92068C16821F08001C16020680D
:10044000C16841F04001C16070BD58060ED571060B
:100450000CD52068C16821F04001C16020462021F0
:1004600084F83910BDE8704000F077B970BD2DE90F
:10047000F041069C05460E4690461F4628680168D6
:100480003140B1420CBF01200020404517D114F18A
:10049000010FF3D024B100F047F9C01B8442EDD224
:1004A0002868C16821F4D07100F00CF805F138001B
:1004B00020214170817000210170032000E00020A4
:1004C000BDE8F081C160286841694908490041617F
:1004D00070470168CA6822F49072CA6001684A696C
:1004E000520852004A61202180F83A1070470000FB
:1004F000806B0021C185C18400F02EB980B590F8D1
:100500003A10222941D18168B1F5805F12D1016989
:100510000368826A0029596805D1C1F30801118076
:10052000826A911C04E001F0FF011180826A511C73
:1005300081620FE001690029816A04D14A1C82624C
:1005400003685A6805E04A1C826203685A6802F030
:100550007F020A70C18D491EC18589B299B90168AF
:10056000CA6822F02002CA600168CA6822F4807258
:10057000CA6001684A69520852004A61202180F825
:100580003A1000F04BF9002002BD022002BDD0B5A8
:100590000646642732681169F06821F4405101432E
:1005A00011611924D3682D48B168034030690B43A9
:1005B00071690343F0690B430343D3605169B06928
:1005C00021F4407101435161F36925482549B3F590
:1005D000004F1FD18A4218BF824202D100F0E8F9D1
:1005E00001E000F0DDF90246A4FB02017268D30FBE
:1005F000520000F025FA00F037F8FF00323764208F
:10060000B7FBF0F0420002F4F87202EB011200F0C6
:1006100007001DE08A4218BF824202D100F0C8F9EB
:1006200001E000F0BDF90246A4FB02017268930FDD
:10063000920000F005FA00F017F83F01323764200D
:10064000B7FBF0F000F0F00202EB011200F00F0037
:10065000316880188860D0BD00000000F369FFFF9A
:1006600000140140001001406421B0FBF1F107FBD0
:100670001107704780B52848284901604FF4E132DE
:1006800000230C2142608360C36003614161836188
:10069000C361FFF779FD18B1BDE8014000F0F8B87B
:1006A00001BD10B586B004461422002101A800F057
:1006B0004AFA2168194881422CD100221848009238
:1006C000416941F010014161416901F0100100915F
:1006D000009900924FF4C061036843F00103036086
:1006E0000222006800F00100009000980D4801917E
:1006F000029200210391032207210591049201A98E
:1007000000F02CFA00220021252000F033FB2520E8
:1007100000F04DFB06B010BD180000200010014095
:10072000303802400000024001484068704700BF76
:100730000800002090F83510022903D0802242657D
:1007400001207047052180F83510006802685208C2
:1007500052000260002070477047704780B500F07B
:1007600051FB00F010F800F067FBFFF783FF012258
:1007700042494348FFF79CFD00F0E8FC00210020BF
:1007800000F001FDFEE780B592B03022002106A8FE
:1007900000F0D9F91422002101A800F0D4F90020BA
:1007A00000904FF480333748016841F08051016078
:1007B0000021006800F080500090009832480091BD
:1007C000026842F4804202600122006800F4804026
:1007D000009006A80099069202214FF480020C9125
:1007E0000D920421A8220E910F9202210422079358
:1007F0001091119200F0D6FC022102910022039286
:100800000F204FF4A051019004914FF480520592B3
:10081000052101A800F03EF813B000BD00681B4997
:10082000884200D0704738B5154D144C012221463E
:100830002846FFF73DFD0A23012221462846FFF7FF
:10084000DEFC6068112804D10121002000F09BFC2F
:1008500007E0212805D100F094FC00F090FC002076
:1008600060602178632908BF00F08BFC207800F0DD
:100870002AFC6068401C606031BD00000000002060
:100880001800002040380240007000400010014075
:10089000704700002DE9F04104000F4654D0494E46
:1008A000306800F00F00B84202D200F073F84BD16C
:1008B0002068454D810712D5400703D5A96841F44A
:1008C000E051A9602078010703D5A86840F4604092
:1008D000A860A968A06821F0F0010143A96021780F
:1008E000C80729D56068012802D129688A0305E074
:1008F000022818BF032803D129688A0103D423E002
:1009000029688A0720D5A968890840EA8100A8607B
:10091000FFF70AFF8046A868616800F00C00B0EBA2
:10092000810F09D0FFF700FFA0EB080041F28931E9
:100930008842F0D303202BE0306800F00F0087429C
:1009400004D200F027F801D0012021E020784107EF
:1009500005D5AA68E06822F4E0520243AA60217833
:10096000080706D5A968206921F4604141EAC00161
:10097000A96000F035F8AA681449154BC2F30312B8
:10098000895CC84018601348006800F093FD00209F
:10099000BDE8F0813770316801F00F01B94270474E
:1009A0000B480D4A006813680C49C3F3822206E025
:1009B0000748094A006813680849C3F34232895C52
:1009C000C8407047003C024000380240EC15000867
:1009D000140000201000002008380240EC16000827
:1009E00030B5144C606800F00C00042802D00828D0
:1009F00002D01DE0104830BD22682068002341026B
:100A000002F03F0204D525680B49C5F3881003E0C6
:100A100020680A49C0F38810A1FB000100F010F81B
:100A20002168C1F30141491C4900B0FBF1F030BD20
:100A3000024830BD0438024000127A000024F4005D
:100A4000D3BBD9B1B2F5803F5BD2022A1ED98C4606
:100A5000B1FBF2F102FB11C31B0443EA1043B3FBE9
:100A6000F2FC02FB1C3380B240EA0343B3FBF2F01A
:100A700002FB103240EA0C4000237047022A05D9DD
:100A80008446B0FBF2F002FB10C270474AB105D1B8
:100A900000F0010249085FEA30007047002200239D
:100AA000704700F027BD0B000200002100207047B6
:100AB000F7D3002200237047904271EB030CF2D36E
:100AC00070B5B1FA81F4B3FA83F52C1BA340C4F1DD
:100AD000200532FA05F63343A2405FF00046E640B7
:100AE00002E05B085FEA3202841A71EB030524BF5F
:100AF000204629467641F4D302000B003000002145
:100B000070BD70B5B1FA81F4B2FA82F5C4F1200477
:100B10006419B4F12006DAD3B2405FF00044F44027
:100B2000002502E052085FEA3303C61A71EB020E99
:100B300024BF3046714664416D41F3D302000B007F
:100B40002000290070BD10B5044610460A46014633
:100B5000204600F0D1FC204610BD00002DE9F84FE2
:100B60000D4600266B496C4A0F23044601202F686E
:100B7000B04000EA0708804540F0C1804FEA460CCB
:100B8000032707FA0CF76FEA070E6F68012F18BFEB
:100B9000022F03D0112F18BF122F12D1A768D5F83A
:100BA0000C900EEA070709FA0CF949EA0707A76053
:100BB000676827EA00006F68C7F30017B74038433B
:100BC0006060E068AF680EEA000007FA0CF738438F
:100BD000E060B0006F68022F18BF122F12D1F70823
:100BE00004EB870700F01C09D7F820A003FA09FBE3
:100BF0002AEA0B0AD5F810B00BFA09F949EA0A09F2
:100C0000C7F8209027680EEA070E2F7907F0030730
:100C100007FA0CF747EA0E0727606F68FF006ED5EA
:100C2000002700974FEA960C176847F48047176033
:100C300000F00C00176807F48047009703FA00FEE5
:100C4000009F364F57F82C7027EA0E0E344FBC42E7
:100C500008BF002722D0334FBC4208BF01271DD058
:100C6000314FBC4208BF022718D0304FBC4208BFEA
:100C7000032713D02E4FBC4208BF04270ED02D4FA0
:100C8000BC4208BF052709D02B4FBC4208BF06272E
:100C900004D02A4FBC420CBF0727082707FA00F0F0
:100CA0001E4F40EA0E0047F82C006FEA08000F685C
:100CB00000EA070C6F68FF0348BF48EA0C0CC1F854
:100CC00000C04F6800EA070C6F68BF0348BF48EADE
:100CD0000C0CC1F804C08F6800EA070C6F68FF02B3
:100CE00048BF48EA0C0CC1F808C0CF6800EA070CFE
:100CF0006868800248BF48EA0C0CC1F80CC0761C3A
:100D00000F2E7FF633AFBDE8F18F02B90904816180
:100D100070470000003C0140443802400838014060
:100D2000000002400004024000080240000C0240A3
:100D3000001002400014024000180240001C024053
:100D40000901020002D4294881547047284B02F05F
:100D50000F021A4402F8041C7047264B19684FF61C
:100D6000FF020002114000F4E060084322490843FA
:100D70001860704770B51F4B1C68C4F30223012430
:100D8000C3F10705052D2EBF0F2504FA05F56D1ECD
:100D90001E1D072E34BF0023DB1E2940994004FA94
:100DA00003F3BDE870405B1E1A401143C8E7010021
:100DB00007D4012200F01F01104B8A40400943F87C
:100DC0002020704710B5401EB0F1807F01D3012074
:100DD00010BD0B4C60600F214FF0FF30FFF7B0FFEC
:100DE0000021A16007202060002010BD00E400E089
:100DF00018ED00E00CED00E00000FA0500E100E075
:100E000010E000E080B50B48016841F4007101601A
:100E1000026842F480620260016841F480710160FE
:100E20000320FFF79AFF002000F044FB00F098FB3E
:100E3000002002BD003C024038B586B014220021DB
:100E400001A8FFF780FE00212148224D224C00918D
:100E5000026842F0800202600022016801F0800115
:100E6000009100990092036843F004030360016855
:100E700001F00401009100990092036843F002031D
:100E80000360016801F00201009100990092F021D5
:100E9000036843F001030360006800F00100009064
:100EA00000982846FFF731FF002207212046FFF770
:100EB0002CFFF02100F012F82846FFF74FFE072123
:100EC00000F00CF82046FFF749FE07B030BD0000E7
:100ED0003038024000080240000402400191012223
:100EE000002103910491029201A970473C2000BFA8
:100EF00000BF00BF00BF00BF00BF00BF00BF00BFFA
:100F000000BF00BF00BF00BF00BF00BF00BF00BFE9
:100F100000BF00BF00BF00BF00BF00BF00BF00BFD9
:100F200000BF00BF00BF00BF00BF00BF00BF00BFC9
:100F300000BF00BF00BF00BF00BF00BF00BF00BFB9
:100F400000BF00BF00BF00BF00BF00BF00BF00BFA9
:100F500000BF00BF00BF00BF00BF00BF00BF00BF99
:100F600000BF00BF00BF00BF00BF00BF00BF00BF89
:100F700000BF00BF00BF00BF00BF00BF00BF00BF79
:100F800000BF00BF00BF00BF00BF00BF00BF00BF69
:100F900000BF00BF00BF00BF00BF00BF00BF00BF59
:100FA00000BF00BF00BF00BF00BF00BF00BF00BF49
:100FB00000BF00BF00BF00BF00BF00BF00BF00BF39
:100FC00000BF00BF00BF00BF00BF00BF00BF00BF29
:100FD00000BF00BF00BF00BF00BF00BF00BF00BF19
:100FE00000BF00BF00BF00BF00BF00BF00BF00BF09
:100FF00000BF00BF00BF00BF00BF00BF00BF00BFF9
:1010000000BF00BF00BF00BF00BF00BF00BF00BFE8
:1010100000BF00BF00BF00BF00BF00BF00BF00BFD8
:1010200000BF00BF00BF00BF00BF00BF00BF00BFC8
:10103000401E00287FF45BAF704781B0002343F669
:10104000E4620093504301E00098401E0090009835
:101050000028F9D101B0704738B586B00020304C77
:10106000304D00900722216841F0020121600123E8
:10107000206800F0020000902846009901920021AB
:1010800003910491029301A9FFF768FD0022072153
:1010900000F059F800200090216841F00201216021
:1010A000F021206800F00200009000981E48019195
:1010B00001A9FFF753FD07B030BD70B50446194DC7
:1010C0000022032108E070B50446164D01220221DA
:1010D00000F039F80022012100F035F800F031F875
:1010E000114E00F023F800F026F80120FFF7FEFE75
:1010F000002200F027F80120FFF7F8FE00F021F8A9
:1011000000F014F8240100F016F80120FFF7EEFEBD
:10111000002200F017F8BDE8704002208DE70000C3
:101120003038024000040240000802400022F02152
:101130003046FFF7EABD012204F0F0013046FFF728
:10114000E4BD012204212846FFF7DFBD80B5FFF78B
:1011500083FF2820FFF7B1FF0120FFF7AEFF6420D7
:10116000FFF76BFF0620FFF7A8FF0C20FFF7A5FF96
:101170000220FFF7A2FFBDE8024080209DE7022089
:101180009BE7012099E7012905D007D3032904D063
:1011900038BF143002E0403000E0543040F08000AE
:1011A000C0B28AE72DE9F843040016D02078DFF8B2
:1011B000F462C10713D5B06800F00C00042807D012
:1011C000B06800F00C0008283DD1706841023AD5A3
:1011D0003068810303D56068002800F05E812078C4
:1011E000B14F810719D5B06810F00C0F07D0B06867
:1011F00000F00C0008285BD17068410258D43068B8
:10120000810703D5E068012840F0478131682069F3
:1012100021F0F80141EAC00131602178080779D551
:101220006069A249002868D001220A60FFF77CFAB1
:101230000546706F81076DD4FFF776FA401B0228D0
:10124000F7D903202CE16068B0F5803F04D1306805
:1012500040F48030306011E0B0F5A02F306806D146
:1012600040F480203060316841F4803105E020F4A2
:1012700080303060316821F480213160606858B17D
:10128000FFF752FA054630688103A8D4FFF74CFAFD
:10129000401B6528F7D3D4E7FFF746FA05463068C8
:1012A00081039CD5FFF740FA401B6528F7D3C8E7B8
:1012B000E068A8B101213960FFF736FA05463068C9
:1012C000810705D4FFF730FA401B0228F7D9B8E7A9
:1012D0003068216920F0F80040EAC10030609CE7E6
:1012E0003860FFF721FA05463168880795D5FFF782
:1012F0001BFA401B0228F7D9A3E70860FFF714FA8E
:101300000546706F810705D5FFF70EFA401B0228CE
:10131000F7D996E7207841075FD5306C0025C100EA
:101320000AD400950125316C41F080513164306C54
:1013300000F0805000900098DFF87481D8F8000029
:10134000C10513D4D8F8000040F48070C8F800003C
:10135000FFF7EAF98146D8F80000C10506D4FFF787
:10136000E3F9A0EB09000228F5D96AE7A068012893
:1013700005D00528306F06D140F004003067306F8B
:1013800040F0010005E0400840003067306F20F079
:101390000400306741F28938A06860B1FFF7C4F9F2
:1013A0008146306F810713D4FFF7BEF9A0EB090027
:1013B0004045F6D345E7FFF7B7F98146306F81071F
:1013C00006D5FFF7B1F9A0EB09004045F6D338E7A1
:1013D0001DB1306C20F080503064A06900285ED0D0
:1013E000B16801F00C0108293AD002282AD1002066
:1013F0003866FFF799F905463068810105D5FFF792
:1014000093F9401B0228F7D91BE7E069216A626A59
:101410000843A16A490840EA8210491E40EA014097
:10142000E16A40EA0160706001203866FFF77CF9EC
:1014300004463068810132D4FFF776F9001B022898
:10144000F7D9FEE600203866FFF76EF904463068EB
:10145000810124D5FFF768F9001B0228F7D9F0E6CF
:1014600001281AD07068E26900F48001914202BF3D
:1014700000F03F01226A91420FD147F6C071626AC3
:101480000140914202BF00F44031A26A914202BF82
:1014900000F07060E16A884201D0012000E0002085
:1014A000BDE8F2830038024000004742800E474208
:1014B0000070004038B50D4D0D4B2A7804464FF4AE
:1014C0007A711868B1FBF2F2B0FBF2F0FFF77AFC28
:1014D00050B9102C08D2002221464FF0FF30FFF700
:1014E00049FCAC60002032BD012032BD0800002064
:1014F000140000207047000062F30F2262F31F42C5
:10150000401810F0030308D0C91A1FD3DB0748BFE7
:1015100000F8012D28BF20F8022D130030B4144626
:101520001546103928BF20E93C00FAD8490728BFE2
:1015300020E90C0048BF40F8042D890028BF20F89E
:10154000022D48BF00F8012D30BC7047C91818BFE4
:1015500000F8012DCB0728BF00F8012D70470000CF
:1015600081B00020009000220A48416841F4804187
:101570004160416801F48041009100990092036844
:1015800043F080530360006800F0805000900098A2
:1015900001B070474038024030B501688468421895
:1015A000416802EB5103C90703D54C4401E0491CD3
:1015B00005D19A420AD012F9011B12F8015B0029E9
:1015C00004F8015BF3D4491EF7D5F2E70C3030BDC7
:1015D0000448054A016841F4700101604FF0006061
:1015E0001060704788ED00E008ED00E000000000AA
:1015F00000000000010203040607080910B50749AE
:1016000079441831064C7C44163404E00A68081DFD
:10161000114488470146A142F8D110BD2C000000BA
:10162000380000004EF68851CEF20001086840F400
:1016300070000860BFF34F8FBFF36F8F4FF00070E3
:10164000E1EE100A7047000051FFFFFFDC010000CF
:1016500026000000000000207047FEE7FEE7FEE7DE
:10166000FEE770477047704700F006B80148FEF784
:1016700050BE0000180000200248416802788A1815
:10168000426070470800002000F00DF8002801D0EB
:10169000FFF7B4FFAFF300800020AFF30080FFF747
:1016A0005DF800F002F80120704700F001B800007A
:1016B0000746384600F002F8FBE7000080B5AFF3BC
:1016C0000080024A11001820ABBEFBE72600020092
:1016D0000148804701480047D1150008E11600087D
:1016E000AFF30080FFF79EFFFFF7CEFF0000000082
:1016F00001020304FFF7FEBFFFF7FEBFFFF7FEBFC7
:10170000FFF7FEBFFFF7FEBFFFF7FEBFFFF7FEBF0D
:10171000FFF7FEBFFFF7FEBFFFF7FEBFFFF7FEBFFD
:10172000FFF7FEBFFFF7FEBFFFF7FEBFFFF7FEBFED
:10173000FFF7FEBFFFF7FEBFFFF7FEBFFFF7FEBFDD
:10174000FFF7FEBFFFF7FEBFFFF7FEBFFFF7FEBFCD
:10175000FFF7FEBFFFF7FEBFFFF7FEBFFFF7FEBFBD
:10176000FFF7FEBFFFF7FEBFFFF7FEBFFFF7FEBFAD
:10177000FFF7FEBFFFF7FEBFFFF7FEBFFFF7FEBF9D
:10178000FFF7FEBFFFF7FEBFFFF7FEBFFFF7FEBF8D
:10179000FFF7FEBFFFF7FEBFFFF7FEBFFFF7FEBF7D
:1017A000FFF7FEBFFFF7FEBFFFF7FEBFFFF7FEBF6D
:1017B000FFF7FEBFFFF7FEBFFFF7FEBFFFF7FEBF5D
:1017C000FFF7FEBFFFF7FEBFFFF7FEBFFFF7FEBF4D
:1017D000FFF7FEBFFFF7FEBFFFF7FEBFFFF7FEBF3D
:1017E000FFF7FEBFFFF7FEBFFFF7FEBFFFF7FEBF2D
:1017F000FFF7FEBFFFF7FEBFFFF7FEBFFFF7FEBF1D
:10180000FFF7FEBFFFF7FEBFFFF7FEBFFFF7FEBF0C
:10181000FFF7FEBFFFF7FEBFFFF7FEBFFFF7FEBFFC
:10182000FFF7FEBFFFF7FEBFFC000001FD00000157
:0B183000F9000010FC000124F4BF00D0
:04000005080016E1F8
:00000001FF
